:0300000002004CAF
:100008000000E2FBEAF2802C0000E0FBEAF080242A
:10001800E6B50202EBF62200E2B50202EBF222009C
:10002800E0B50202EBF02230F6E0A88220F5D3EA30
:10003800C6F582228B822230F6E6A88220F5D98086
:01004800CFE8
:0300A5000200490D
:030049000200CCE6
:1000A8007F007D007E007B007C011BBBFF011CEBF9
:1000B8004C70F70DBD00010E74FF2E50E90FBF08FC
:1000C8000040DF2275B20075B100C2B31200A8D299
:0600D800B31200A880F441
:06007B00E478FFF6D8FD59
:100059007900E94400601B7A009000E2780175A0FC
:1000690000E493F2A308B8000205A0D9F4DAF27506
:02007900A0FFE6
:100081007800E84400600A790175A000E4F309D81A
:10009100FC7800E84400600C7900900001E4F0A3D2
:0400A100D8FCD9FAB4
:0D004C007581071200DEE5826003020049A5
:0400DE007582002205
:00000001FF
